{
  "_format": "hh-sol-artifact-1",
  "contractName": "ApesNFT",
  "sourceName": "contracts/Apes.sol",
  "abi": [
    {
      "anonymous": false,
      "inputs": [
        {
          "indexed": true,
          "internalType": "address",
          "name": "user",
          "type": "address"
        },
        {
          "indexed": true,
          "internalType": "uint256",
          "name": "tokenId",
          "type": "uint256"
        },
        {
          "indexed": true,
          "internalType": "uint256",
          "name": "aType",
          "type": "uint256"
        }
      ],
      "name": "ApesMinted",
      "type": "event"
    },
    {
      "anonymous": false,
      "inputs": [
        {
          "indexed": true,
          "internalType": "address",
          "name": "owner",
          "type": "address"
        },
        {
          "indexed": true,
          "internalType": "address",
          "name": "approved",
          "type": "address"
        },
        {
          "indexed": true,
          "internalType": "uint256",
          "name": "tokenId",
          "type": "uint256"
        }
      ],
      "name": "Approval",
      "type": "event"
    },
    {
      "anonymous": false,
      "inputs": [
        {
          "indexed": true,
          "internalType": "address",
          "name": "owner",
          "type": "address"
        },
        {
          "indexed": true,
          "internalType": "address",
          "name": "operator",
          "type": "address"
        },
        {
          "indexed": false,
          "internalType": "bool",
          "name": "approved",
          "type": "bool"
        }
      ],
      "name": "ApprovalForAll",
      "type": "event"
    },
    {
      "anonymous": false,
      "inputs": [
        {
          "indexed": true,
          "internalType": "address",
          "name": "previousOwner",
          "type": "address"
        },
        {
          "indexed": true,
          "internalType": "address",
          "name": "newOwner",
          "type": "address"
        }
      ],
      "name": "OwnershipTransferred",
      "type": "event"
    },
    {
      "anonymous": false,
      "inputs": [
        {
          "indexed": true,
          "internalType": "address",
          "name": "from",
          "type": "address"
        },
        {
          "indexed": true,
          "internalType": "address",
          "name": "to",
          "type": "address"
        },
        {
          "indexed": true,
          "internalType": "uint256",
          "name": "tokenId",
          "type": "uint256"
        }
      ],
      "name": "Transfer",
      "type": "event"
    },
    {
      "inputs": [],
      "name": "BREED_PRICE",
      "outputs": [
        {
          "internalType": "uint256",
          "name": "",
          "type": "uint256"
        }
      ],
      "stateMutability": "view",
      "type": "function"
    },
    {
      "inputs": [],
      "name": "DENOMINATOR",
      "outputs": [
        {
          "internalType": "uint256",
          "name": "",
          "type": "uint256"
        }
      ],
      "stateMutability": "view",
      "type": "function"
    },
    {
      "inputs": [],
      "name": "EVOLVE_PRICE",
      "outputs": [
        {
          "internalType": "uint256",
          "name": "",
          "type": "uint256"
        }
      ],
      "stateMutability": "view",
      "type": "function"
    },
    {
      "inputs": [],
      "name": "MAX_APES_PURCHASE",
      "outputs": [
        {
          "internalType": "uint256",
          "name": "",
          "type": "uint256"
        }
      ],
      "stateMutability": "view",
      "type": "function"
    },
    {
      "inputs": [],
      "name": "MAX_FREE_FOR_USER",
      "outputs": [
        {
          "internalType": "uint256",
          "name": "",
          "type": "uint256"
        }
      ],
      "stateMutability": "view",
      "type": "function"
    },
    {
      "inputs": [],
      "name": "MAX_SUPPLY_FOR_FREE",
      "outputs": [
        {
          "internalType": "uint256",
          "name": "",
          "type": "uint256"
        }
      ],
      "stateMutability": "view",
      "type": "function"
    },
    {
      "inputs": [],
      "name": "MINT_PRICE",
      "outputs": [
        {
          "internalType": "uint256",
          "name": "",
          "type": "uint256"
        }
      ],
      "stateMutability": "view",
      "type": "function"
    },
    {
      "inputs": [],
      "name": "_baseTokenURI",
      "outputs": [
        {
          "internalType": "string",
          "name": "",
          "type": "string"
        }
      ],
      "stateMutability": "view",
      "type": "function"
    },
    {
      "inputs": [
        {
          "internalType": "uint256",
          "name": "_parent",
          "type": "uint256"
        }
      ],
      "name": "adopt",
      "outputs": [],
      "stateMutability": "payable",
      "type": "function"
    },
    {
      "inputs": [
        {
          "internalType": "uint256",
          "name": "",
          "type": "uint256"
        }
      ],
      "name": "apes",
      "outputs": [
        {
          "internalType": "enum ApesNFT.ApesType",
          "name": "aType",
          "type": "uint8"
        },
        {
          "internalType": "bool",
          "name": "bStaked",
          "type": "bool"
        }
      ],
      "stateMutability": "view",
      "type": "function"
    },
    {
      "inputs": [
        {
          "internalType": "address",
          "name": "to",
          "type": "address"
        },
        {
          "internalType": "uint256",
          "name": "tokenId",
          "type": "uint256"
        }
      ],
      "name": "approve",
      "outputs": [],
      "stateMutability": "nonpayable",
      "type": "function"
    },
    {
      "inputs": [],
      "name": "bBreedingAvailable",
      "outputs": [
        {
          "internalType": "bool",
          "name": "",
          "type": "bool"
        }
      ],
      "stateMutability": "view",
      "type": "function"
    },
    {
      "inputs": [],
      "name": "bMintAvailable",
      "outputs": [
        {
          "internalType": "bool",
          "name": "",
          "type": "bool"
        }
      ],
      "stateMutability": "view",
      "type": "function"
    },
    {
      "inputs": [],
      "name": "bStakingAvailable",
      "outputs": [
        {
          "internalType": "bool",
          "name": "",
          "type": "bool"
        }
      ],
      "stateMutability": "view",
      "type": "function"
    },
    {
      "inputs": [
        {
          "internalType": "address",
          "name": "owner",
          "type": "address"
        }
      ],
      "name": "balanceOf",
      "outputs": [
        {
          "internalType": "uint256",
          "name": "",
          "type": "uint256"
        }
      ],
      "stateMutability": "view",
      "type": "function"
    },
    {
      "inputs": [
        {
          "internalType": "uint256",
          "name": "_tokenId",
          "type": "uint256"
        }
      ],
      "name": "evolve",
      "outputs": [],
      "stateMutability": "payable",
      "type": "function"
    },
    {
      "inputs": [
        {
          "internalType": "uint256",
          "name": "_tokenId",
          "type": "uint256"
        }
      ],
      "name": "getApesType",
      "outputs": [
        {
          "internalType": "uint256",
          "name": "",
          "type": "uint256"
        }
      ],
      "stateMutability": "view",
      "type": "function"
    },
    {
      "inputs": [
        {
          "internalType": "uint256",
          "name": "tokenId",
          "type": "uint256"
        }
      ],
      "name": "getApproved",
      "outputs": [
        {
          "internalType": "address",
          "name": "",
          "type": "address"
        }
      ],
      "stateMutability": "view",
      "type": "function"
    },
    {
      "inputs": [],
      "name": "initialize",
      "outputs": [],
      "stateMutability": "nonpayable",
      "type": "function"
    },
    {
      "inputs": [
        {
          "internalType": "address",
          "name": "owner",
          "type": "address"
        },
        {
          "internalType": "address",
          "name": "operator",
          "type": "address"
        }
      ],
      "name": "isApprovedForAll",
      "outputs": [
        {
          "internalType": "bool",
          "name": "",
          "type": "bool"
        }
      ],
      "stateMutability": "view",
      "type": "function"
    },
    {
      "inputs": [
        {
          "internalType": "uint256",
          "name": "numberOfTokens",
          "type": "uint256"
        }
      ],
      "name": "mintNFT",
      "outputs": [],
      "stateMutability": "payable",
      "type": "function"
    },
    {
      "inputs": [],
      "name": "name",
      "outputs": [
        {
          "internalType": "string",
          "name": "",
          "type": "string"
        }
      ],
      "stateMutability": "view",
      "type": "function"
    },
    {
      "inputs": [],
      "name": "owner",
      "outputs": [
        {
          "internalType": "address",
          "name": "",
          "type": "address"
        }
      ],
      "stateMutability": "view",
      "type": "function"
    },
    {
      "inputs": [
        {
          "internalType": "uint256",
          "name": "tokenId",
          "type": "uint256"
        }
      ],
      "name": "ownerOf",
      "outputs": [
        {
          "internalType": "address",
          "name": "",
          "type": "address"
        }
      ],
      "stateMutability": "view",
      "type": "function"
    },
    {
      "inputs": [],
      "name": "renounceOwnership",
      "outputs": [],
      "stateMutability": "nonpayable",
      "type": "function"
    },
    {
      "inputs": [],
      "name": "royaltyPercent",
      "outputs": [
        {
          "internalType": "uint256",
          "name": "",
          "type": "uint256"
        }
      ],
      "stateMutability": "view",
      "type": "function"
    },
    {
      "inputs": [],
      "name": "royaltyReceiver",
      "outputs": [
        {
          "internalType": "address",
          "name": "",
          "type": "address"
        }
      ],
      "stateMutability": "view",
      "type": "function"
    },
    {
      "inputs": [
        {
          "internalType": "address",
          "name": "from",
          "type": "address"
        },
        {
          "internalType": "address",
          "name": "to",
          "type": "address"
        },
        {
          "internalType": "uint256",
          "name": "tokenId",
          "type": "uint256"
        }
      ],
      "name": "safeTransferFrom",
      "outputs": [],
      "stateMutability": "nonpayable",
      "type": "function"
    },
    {
      "inputs": [
        {
          "internalType": "address",
          "name": "from",
          "type": "address"
        },
        {
          "internalType": "address",
          "name": "to",
          "type": "address"
        },
        {
          "internalType": "uint256",
          "name": "tokenId",
          "type": "uint256"
        },
        {
          "internalType": "bytes",
          "name": "_data",
          "type": "bytes"
        }
      ],
      "name": "safeTransferFrom",
      "outputs": [],
      "stateMutability": "nonpayable",
      "type": "function"
    },
    {
      "inputs": [
        {
          "internalType": "address",
          "name": "operator",
          "type": "address"
        },
        {
          "internalType": "bool",
          "name": "approved",
          "type": "bool"
        }
      ],
      "name": "setApprovalForAll",
      "outputs": [],
      "stateMutability": "nonpayable",
      "type": "function"
    },
    {
      "inputs": [
        {
          "internalType": "string",
          "name": "_newURI",
          "type": "string"
        }
      ],
      "name": "setBaseURI",
      "outputs": [],
      "stateMutability": "nonpayable",
      "type": "function"
    },
    {
      "inputs": [],
      "name": "setBreedingAvailable",
      "outputs": [],
      "stateMutability": "nonpayable",
      "type": "function"
    },
    {
      "inputs": [],
      "name": "setMintAvailable",
      "outputs": [],
      "stateMutability": "nonpayable",
      "type": "function"
    },
    {
      "inputs": [
        {
          "internalType": "address",
          "name": "_royaltyReceiver",
          "type": "address"
        },
        {
          "internalType": "uint256",
          "name": "_royaltyPercent",
          "type": "uint256"
        },
        {
          "internalType": "uint256",
          "name": "_DENOMINATOR",
          "type": "uint256"
        }
      ],
      "name": "setRoyaltyConfig",
      "outputs": [],
      "stateMutability": "nonpayable",
      "type": "function"
    },
    {
      "inputs": [],
      "name": "setStakingAvailable",
      "outputs": [],
      "stateMutability": "nonpayable",
      "type": "function"
    },
    {
      "inputs": [
        {
          "internalType": "address",
          "name": "_addr",
          "type": "address"
        }
      ],
      "name": "setStakingPool",
      "outputs": [],
      "stateMutability": "nonpayable",
      "type": "function"
    },
    {
      "inputs": [
        {
          "internalType": "address",
          "name": "_addr",
          "type": "address"
        }
      ],
      "name": "setUtilitytoken",
      "outputs": [],
      "stateMutability": "nonpayable",
      "type": "function"
    },
    {
      "inputs": [
        {
          "internalType": "uint256",
          "name": "_tokenId",
          "type": "uint256"
        }
      ],
      "name": "startStaking",
      "outputs": [],
      "stateMutability": "nonpayable",
      "type": "function"
    },
    {
      "inputs": [
        {
          "internalType": "uint256",
          "name": "_tokenId",
          "type": "uint256"
        }
      ],
      "name": "stopStaking",
      "outputs": [],
      "stateMutability": "nonpayable",
      "type": "function"
    },
    {
      "inputs": [
        {
          "internalType": "bytes4",
          "name": "interfaceId",
          "type": "bytes4"
        }
      ],
      "name": "supportsInterface",
      "outputs": [
        {
          "internalType": "bool",
          "name": "",
          "type": "bool"
        }
      ],
      "stateMutability": "view",
      "type": "function"
    },
    {
      "inputs": [],
      "name": "symbol",
      "outputs": [
        {
          "internalType": "string",
          "name": "",
          "type": "string"
        }
      ],
      "stateMutability": "view",
      "type": "function"
    },
    {
      "inputs": [
        {
          "internalType": "uint256",
          "name": "index",
          "type": "uint256"
        }
      ],
      "name": "tokenByIndex",
      "outputs": [
        {
          "internalType": "uint256",
          "name": "",
          "type": "uint256"
        }
      ],
      "stateMutability": "view",
      "type": "function"
    },
    {
      "inputs": [
        {
          "internalType": "address",
          "name": "owner",
          "type": "address"
        },
        {
          "internalType": "uint256",
          "name": "index",
          "type": "uint256"
        }
      ],
      "name": "tokenOfOwnerByIndex",
      "outputs": [
        {
          "internalType": "uint256",
          "name": "",
          "type": "uint256"
        }
      ],
      "stateMutability": "view",
      "type": "function"
    },
    {
      "inputs": [
        {
          "internalType": "uint256",
          "name": "tokenId",
          "type": "uint256"
        }
      ],
      "name": "tokenURI",
      "outputs": [
        {
          "internalType": "string",
          "name": "",
          "type": "string"
        }
      ],
      "stateMutability": "view",
      "type": "function"
    },
    {
      "inputs": [],
      "name": "totalSupply",
      "outputs": [
        {
          "internalType": "uint256",
          "name": "",
          "type": "uint256"
        }
      ],
      "stateMutability": "view",
      "type": "function"
    },
    {
      "inputs": [
        {
          "internalType": "uint256",
          "name": "",
          "type": "uint256"
        }
      ],
      "name": "totalSupplyByType",
      "outputs": [
        {
          "internalType": "uint256",
          "name": "",
          "type": "uint256"
        }
      ],
      "stateMutability": "view",
      "type": "function"
    },
    {
      "inputs": [
        {
          "internalType": "address",
          "name": "from",
          "type": "address"
        },
        {
          "internalType": "address",
          "name": "to",
          "type": "address"
        },
        {
          "internalType": "uint256",
          "name": "tokenId",
          "type": "uint256"
        }
      ],
      "name": "transferFrom",
      "outputs": [],
      "stateMutability": "nonpayable",
      "type": "function"
    },
    {
      "inputs": [
        {
          "internalType": "address",
          "name": "newOwner",
          "type": "address"
        }
      ],
      "name": "transferOwnership",
      "outputs": [],
      "stateMutability": "nonpayable",
      "type": "function"
    },
    {
      "inputs": [],
      "name": "withdraw",
      "outputs": [],
      "stateMutability": "nonpayable",
      "type": "function"
    }
  ],
  "bytecode": "0x608060405234801561001057600080fd5b50613674806100206000396000f3fe6080604052600436106102ae5760003560e01c8063762b1c9211610175578063a241d8b3116100dc578063cfc86f7b11610095578063f119f5671161006f578063f119f5671461082a578063f2fde38b1461083d578063f302d62f1461085d578063fa6485841461087e57600080fd5b8063cfc86f7b146107b7578063e985e9c5146107cc578063ea334aa61461081557600080fd5b8063a241d8b3146106d8578063b428b1c7146106f8578063b88d4fde14610740578063bf424e7e14610760578063c002d23d1461077c578063c87b56dd1461079757600080fd5b8063926427441161012e578063926427441461064457806395d89b41146106575780639f0a1e3a1461066c5780639f67756d146106815780639fbc871314610698578063a22cb465146106b857600080fd5b8063762b1c92146105a75780638129fc1c146105c75780638588b2c5146105dc5780638595c369146105ef5780638da5cb5b1461060f578063918f86741461062d57600080fd5b806330c15256116102195780636352211e116101d25780636352211e146104fb57806364b1060b1461051b57806365e649031461053657806370a0823114610556578063715018a614610576578063756059bd1461058b57600080fd5b806330c152561461045c5780633ccfd60b1461047157806342842e0e146104865780634c86ea1d146104a65780634f6ccce7146104bb57806355f804b3146104db57600080fd5b80631051f8c11161026b5780631051f8c1146103b257806318160ddd146103c75780631c760bdb146103dc57806323b872dd146103fc5780632f745c591461041c5780633028f63a1461043c57600080fd5b806301ffc9a7146102b357806306fdde03146102e8578063081812fc1461030a5780630832f3fb14610342578063095ea7b3146103625780630d15994714610384575b600080fd5b3480156102bf57600080fd5b506102d36102ce366004612f4f565b610893565b60405190151581526020015b60405180910390f35b3480156102f457600080fd5b506102fd6108be565b6040516102df9190612fc4565b34801561031657600080fd5b5061032a610325366004612fd7565b610950565b6040516001600160a01b0390911681526020016102df565b34801561034e57600080fd5b50610102546102d390610100900460ff1681565b34801561036e57600080fd5b5061038261037d36600461300c565b6109ea565b005b34801561039057600080fd5b506103a461039f366004612fd7565b610b00565b6040519081526020016102df565b3480156103be57600080fd5b50610382610b21565b3480156103d357600080fd5b506099546103a4565b3480156103e857600080fd5b506103826103f7366004612fd7565b610b5f565b34801561040857600080fd5b50610382610417366004613036565b610c7e565b34801561042857600080fd5b506103a461043736600461300c565b610caf565b34801561044857600080fd5b50610382610457366004613072565b610d45565b34801561046857600080fd5b50610382610d92565b34801561047d57600080fd5b50610382610dce565b34801561049257600080fd5b506103826104a1366004613036565b610e69565b3480156104b257600080fd5b50610382610e84565b3480156104c757600080fd5b506103a46104d6366004612fd7565b610ebe565b3480156104e757600080fd5b506103826104f636600461308d565b610f51565b34801561050757600080fd5b5061032a610516366004612fd7565b610f88565b34801561052757600080fd5b50610102546102d39060ff1681565b34801561054257600080fd5b50610382610551366004613072565b610fff565b34801561056257600080fd5b506103a4610571366004613072565b61104c565b34801561058257600080fd5b506103826110d3565b34801561059757600080fd5b506103a4670de0b6b3a764000081565b3480156105b357600080fd5b506103826105c2366004612fd7565b611109565b3480156105d357600080fd5b506103826112b1565b6103826105ea366004612fd7565b6114e4565b3480156105fb57600080fd5b506103a461060a366004612fd7565b6116b2565b34801561061b57600080fd5b5060c9546001600160a01b031661032a565b34801561063957600080fd5b506103a46101015481565b610382610652366004612fd7565b6116d6565b34801561066357600080fd5b506102fd611bb5565b34801561067857600080fd5b506103a4601481565b34801561068d57600080fd5b506103a46101005481565b3480156106a457600080fd5b5060ff5461032a906001600160a01b031681565b3480156106c457600080fd5b506103826106d33660046130ff565b611bc4565b3480156106e457600080fd5b506103826106f336600461313b565b611bcf565b34801561070457600080fd5b50610732610713366004612fd7565b6101036020526000908152604090205460ff8082169161010090041682565b6040516102df929190613184565b34801561074c57600080fd5b5061038261075b3660046131cb565b611c24565b34801561076c57600080fd5b506103a467016345785d8a000081565b34801561078857600080fd5b506103a466d529ae9e86000081565b3480156107a357600080fd5b506102fd6107b2366004612fd7565b611c5c565b3480156107c357600080fd5b506102fd611d37565b3480156107d857600080fd5b506102d36107e73660046132a7565b6001600160a01b039182166000908152606a6020908152604080832093909416825291909152205460ff1690565b34801561082157600080fd5b506103a4600a81565b610382610838366004612fd7565b611dc6565b34801561084957600080fd5b50610382610858366004613072565b611f8e565b34801561086957600080fd5b50610102546102d39062010000900460ff1681565b34801561088a57600080fd5b506103a460d281565b60006001600160e01b0319821663780e9d6360e01b14806108b857506108b882612026565b92915050565b6060606580546108cd906132da565b80601f01602080910402602001604051908101604052809291908181526020018280546108f9906132da565b80156109465780601f1061091b57610100808354040283529160200191610946565b820191906000526020600020905b81548152906001019060200180831161092957829003601f168201915b5050505050905090565b6000818152606760205260408120546001600160a01b03166109ce5760405162461bcd60e51b815260206004820152602c60248201527f4552433732313a20617070726f76656420717565727920666f72206e6f6e657860448201526b34b9ba32b73a103a37b5b2b760a11b60648201526084015b60405180910390fd5b506000908152606960205260409020546001600160a01b031690565b60006109f582610f88565b9050806001600160a01b0316836001600160a01b03161415610a635760405162461bcd60e51b815260206004820152602160248201527f4552433732313a20617070726f76616c20746f2063757272656e74206f776e656044820152603960f91b60648201526084016109c5565b336001600160a01b0382161480610a7f5750610a7f81336107e7565b610af15760405162461bcd60e51b815260206004820152603860248201527f4552433732313a20617070726f76652063616c6c6572206973206e6f74206f7760448201527f6e6572206e6f7220617070726f76656420666f7220616c6c000000000000000060648201526084016109c5565b610afb8383612076565b505050565b60fd8181548110610b1057600080fd5b600091825260209091200154905081565b60c9546001600160a01b03163314610b4b5760405162461bcd60e51b81526004016109c590613315565b610102805462ff0000191662010000179055565b60008181526101036020526040902054610100900460ff16610bd35760405162461bcd60e51b815260206004820152602760248201527f5468697320746f6b656e206861736e27742065766572206265656e207374616b60448201526632b2103cb2ba1760c91b60648201526084016109c5565b6101065460405163060ee2eb60e21b8152336004820152602481018390526001600160a01b039091169063183b8bac90604401600060405180830381600087803b158015610c2057600080fd5b505af1158015610c34573d6000803e3d6000fd5b505061010654604080516020810190915260008152610c6493506001600160a01b039091169150339084906120e4565b600090815261010360205260409020805461ff0019169055565b610c883382612117565b610ca45760405162461bcd60e51b81526004016109c59061334a565b610afb83838361220e565b6000610cba8361104c565b8210610d1c5760405162461bcd60e51b815260206004820152602b60248201527f455243373231456e756d657261626c653a206f776e657220696e646578206f7560448201526a74206f6620626f756e647360a81b60648201526084016109c5565b506001600160a01b03919091166000908152609760209081526040808320938352929052205490565b60c9546001600160a01b03163314610d6f5760405162461bcd60e51b81526004016109c590613315565b61010680546001600160a01b0319166001600160a01b0392909216919091179055565b60c9546001600160a01b03163314610dbc5760405162461bcd60e51b81526004016109c590613315565b610102805461ff001916610100179055565b60c9546001600160a01b03163314610df85760405162461bcd60e51b81526004016109c590613315565b4780610e385760405162461bcd60e51b815260206004820152600f60248201526e42616c616e6365206973207a65726f60881b60448201526064016109c5565b604051339082156108fc029083906000818181858888f19350505050158015610e65573d6000803e3d6000fd5b5050565b610afb83838360405180602001604052806000815250611c24565b60c9546001600160a01b03163314610eae5760405162461bcd60e51b81526004016109c590613315565b610102805460ff19166001179055565b6000610ec960995490565b8210610f2c5760405162461bcd60e51b815260206004820152602c60248201527f455243373231456e756d657261626c653a20676c6f62616c20696e646578206f60448201526b7574206f6620626f756e647360a01b60648201526084016109c5565b60998281548110610f3f57610f3f61339b565b90600052602060002001549050919050565b60c9546001600160a01b03163314610f7b5760405162461bcd60e51b81526004016109c590613315565b610afb6101048383612dab565b6000818152606760205260408120546001600160a01b0316806108b85760405162461bcd60e51b815260206004820152602960248201527f4552433732313a206f776e657220717565727920666f72206e6f6e657869737460448201526832b73a103a37b5b2b760b91b60648201526084016109c5565b60c9546001600160a01b031633146110295760405162461bcd60e51b81526004016109c590613315565b61010580546001600160a01b0319166001600160a01b0392909216919091179055565b60006001600160a01b0382166110b75760405162461bcd60e51b815260206004820152602a60248201527f4552433732313a2062616c616e636520717565727920666f7220746865207a65604482015269726f206164647265737360b01b60648201526084016109c5565b506001600160a01b031660009081526068602052604090205490565b60c9546001600160a01b031633146110fd5760405162461bcd60e51b81526004016109c590613315565b61110760006123b9565b565b61010254610100900460ff1661116d5760405162461bcd60e51b8152602060048201526024808201527f5374616b696e67204d656368616e69736d206973206e6f742073746172746564604482015263081e595d60e21b60648201526084016109c5565b3361117782610f88565b6001600160a01b0316146111cd5760405162461bcd60e51b815260206004820152601a60248201527f5374616b696e673a206f776e6572206e6f74206d61746368656400000000000060448201526064016109c5565b60008181526101036020526040902054610100900460ff16156112025760405162461bcd60e51b81526004016109c5906133b1565b610106546040516367c18bfd60e11b8152336004820152602481018390526001600160a01b039091169063cf8317fa90604401600060405180830381600087803b15801561124f57600080fd5b505af1158015611263573d6000803e3d6000fd5b50506101065460408051602081019091526000815261129393503392506001600160a01b039091169084906120e4565b600090815261010360205260409020805461ff001916610100179055565b600054610100900460ff166112cc5760005460ff16156112d0565b303b155b6113335760405162461bcd60e51b815260206004820152602e60248201527f496e697469616c697a61626c653a20636f6e747261637420697320616c72656160448201526d191e481a5b9a5d1a585b1a5e995960921b60648201526084016109c5565b600054610100900460ff16158015611355576000805461ffff19166101011790555b6113a26040518060400160405280601081526020016f2bb2b0b63a343c9030b8329031b63ab160811b8152506040518060400160405280600381526020016257414360e81b81525061240b565b6113aa61244c565b6040805160608101825260008152611b586020820152611a90918101919091526113d89060fb906003612e2f565b5060408051606081018252611a0a80825260208201526064918101919091526114059060fc906003612e2f565b5060408051606081018252600080825260208201819052918101919091526114319060fd906003612e70565b5060ff80546001600160a01b03191673d8378be0d049ece73da320252b6399e9584de949179055600a6101005560646101015561010280546201000162ffffff1990911617905560408051606081019091526037808252613608602083013980516114a59161010491602090910190612eb0565b5060005b60c88110156114ce576114bc6000612483565b806114c681613424565b9150506114a9565b5080156114e1576000805461ff00191690555b50565b6101025462010000900460ff1661153d5760405162461bcd60e51b815260206004820152601c60248201527f41646f7074696e67204d32206973206e6f74207265616479207965740000000060448201526064016109c5565b60016000828152610103602052604090205460ff1660028111156115635761156361316e565b14156115b15760405162461bcd60e51b815260206004820152601a60248201527f5472792061646f7074696e672077697468204d31206f72204d3300000000000060448201526064016109c5565b67016345785d8a00003410156116025760405162461bcd60e51b8152602060048201526016602482015275139bc8195b9bdd59da081c185e481d1bc8189c99595960521b60448201526064016109c5565b3361160c82610f88565b6001600160a01b0316146116735760405162461bcd60e51b815260206004820152602860248201527f41646f7074696e673a20596f75277265206e6f74206f776e6572206f6620746860448201526734b9903a37b5b2b760c11b60648201526084016109c5565b60008181526101036020526040902054610100900460ff16156116a85760405162461bcd60e51b81526004016109c5906133b1565b6114e16001612483565b6000818152610103602052604081205460ff1660028111156108b8576108b861316e565b6101025460ff166117295760405162461bcd60e51b815260206004820152601c60248201527f4d696e74696e67206973206e6f7420617661696c61626c65207965740000000060448201526064016109c5565b60008111801561173a575060148111155b6117905760405162461bcd60e51b815260206004820152602160248201527f43616e206f6e6c79206d696e7420323020746f6b656e7320617420612074696d6044820152606560f81b60648201526084016109c5565b60fc6000815481106117a4576117a461339b565b60009182526020822001549060fd90815481106117c3576117c361339b565b90600052602060002001541061181b5760405162461bcd60e51b815260206004820152601d60248201527f457863656564206d617820737570706c79206f662041706573204e465400000060448201526064016109c5565b60fd60008154811061182f5761182f61339b565b60009182526020822001549060fc908154811061184e5761184e61339b565b9060005260206000200154611863919061343f565b8111156118b55760fd60008154811061187e5761187e61339b565b60009182526020822001549060fc908154811061189d5761189d61339b565b90600052602060002001546118b2919061343f565b90505b33600090815260fe602052604081205481906118d290600a61343f565b9050600081118015611902575060d260fd6000815481106118f5576118f561339b565b9060005260206000200154105b156119405760fd60008154811061191b5761191b61339b565b906000526020600020015460d2611932919061343f565b915080821115611940578091505b828083111561195457508291506000611961565b61195e838561343f565b90505b6000611997610101546119916101005461198b8966d529ae9e86000061263090919063ffffffff16565b90612630565b9061263c565b9050806119ab8366d529ae9e860000613456565b6119b59190613475565b3410156119f55760405162461bcd60e51b815260206004820152600e60248201526d125b9d985b1a5908105b5bdd5b9d60921b60448201526064016109c5565b600060fd8181548110611a0a57611a0a61339b565b60009182526020822001549150869060fd9081548110611a2c57611a2c61339b565b906000526020600020016000828254611a459190613475565b909155505033600090815260fe602052604081208054879290611a69908490613475565b909155506000905082611a838566d529ae9e860000613456565b611a8d903461343f565b611a97919061343f565b604051909150339082156108fc029083906000818181858888f19350505050158015611ac7573d6000803e3d6000fd5b5060ff546040516001600160a01b039091169084156108fc029085906000818181858888f19350505050158015611b02573d6000803e3d6000fd5b5060c9546040516001600160a01b03909116904780156108fc02916000818181858888f19350505050158015611b3c573d6000803e3d6000fd5b5060015b878111611bab57611b5a33611b558386613475565b612648565b600061010381611b6a8487613475565b81526020810191909152604001600020805460ff19166001836002811115611b9457611b9461316e565b021790555080611ba381613424565b915050611b40565b5050505050505050565b6060606680546108cd906132da565b610e65338383612662565b60c9546001600160a01b03163314611bf95760405162461bcd60e51b81526004016109c590613315565b60ff80546001600160a01b0319166001600160a01b0394909416939093179092556101005561010155565b611c2e3383612117565b611c4a5760405162461bcd60e51b81526004016109c59061334a565b611c56848484846120e4565b50505050565b6000818152606760205260409020546060906001600160a01b0316611cdb5760405162461bcd60e51b815260206004820152602f60248201527f4552433732314d657461646174613a2055524920717565727920666f72206e6f60448201526e3732bc34b9ba32b73a103a37b5b2b760891b60648201526084016109c5565b6000611ce5612731565b90506000815111611d055760405180602001604052806000815250611d30565b80611d0f84612741565b604051602001611d2092919061348d565b6040516020818303038152906040525b9392505050565b6101048054611d45906132da565b80601f0160208091040260200160405190810160405280929190818152602001828054611d71906132da565b8015611dbe5780601f10611d9357610100808354040283529160200191611dbe565b820191906000526020600020905b815481529060010190602001808311611da157829003601f168201915b505050505081565b6101025462010000900460ff16611e1f5760405162461bcd60e51b815260206004820152601e60248201527f45766f6c76696e672041706573206973206e6f7420726561647920796574000060448201526064016109c5565b33611e2982610f88565b6001600160a01b031614611e8e5760405162461bcd60e51b815260206004820152602660248201527f45766f6c76653a20596f75277265206e6f74206f776e6572206f662074686973604482015265103a37b5b2b760d11b60648201526084016109c5565b6000818152610103602052604081205460ff166002811115611eb257611eb261316e565b14611ef75760405162461bcd60e51b81526020600482015260156024820152744d312063616e206f6e6c792065766f6c7665204d3360581b60448201526064016109c5565b670de0b6b3a7640000341015611f4f5760405162461bcd60e51b815260206004820152601760248201527f4e6f20656e6f7567682070617920746f2065766f6c766500000000000000000060448201526064016109c5565b60008181526101036020526040902054610100900460ff1615611f845760405162461bcd60e51b81526004016109c5906133b1565b6114e16002612483565b60c9546001600160a01b03163314611fb85760405162461bcd60e51b81526004016109c590613315565b6001600160a01b03811661201d5760405162461bcd60e51b815260206004820152602660248201527f4f776e61626c653a206e6577206f776e657220697320746865207a65726f206160448201526564647265737360d01b60648201526084016109c5565b6114e1816123b9565b60006001600160e01b031982166380ac58cd60e01b148061205757506001600160e01b03198216635b5e139f60e01b145b806108b857506301ffc9a760e01b6001600160e01b03198316146108b8565b600081815260696020526040902080546001600160a01b0319166001600160a01b03841690811790915581906120ab82610f88565b6001600160a01b03167f8c5be1e5ebec7d5bd14f71427d1e84f3dd0314c0f7b2291e5b200ac8c7c3b92560405160405180910390a45050565b6120ef84848461220e565b6120fb8484848461283f565b611c565760405162461bcd60e51b81526004016109c5906134bc565b6000818152606760205260408120546001600160a01b03166121905760405162461bcd60e51b815260206004820152602c60248201527f4552433732313a206f70657261746f7220717565727920666f72206e6f6e657860448201526b34b9ba32b73a103a37b5b2b760a11b60648201526084016109c5565b600061219b83610f88565b9050806001600160a01b0316846001600160a01b031614806121d65750836001600160a01b03166121cb84610950565b6001600160a01b0316145b8061220657506001600160a01b038082166000908152606a602090815260408083209388168352929052205460ff165b949350505050565b826001600160a01b031661222182610f88565b6001600160a01b0316146122895760405162461bcd60e51b815260206004820152602960248201527f4552433732313a207472616e73666572206f6620746f6b656e2074686174206960448201526839903737ba1037bbb760b91b60648201526084016109c5565b6001600160a01b0382166122eb5760405162461bcd60e51b8152602060048201526024808201527f4552433732313a207472616e7366657220746f20746865207a65726f206164646044820152637265737360e01b60648201526084016109c5565b6122f683838361293d565b612301600082612076565b6001600160a01b038316600090815260686020526040812080546001929061232a90849061343f565b90915550506001600160a01b0382166000908152606860205260408120805460019290612358908490613475565b909155505060008181526067602052604080822080546001600160a01b0319166001600160a01b0386811691821790925591518493918716917fddf252ad1be2c89b69c2b068fc378daa952ba7f163c4a11628f55a4df523b3ef91a4505050565b60c980546001600160a01b038381166001600160a01b0319831681179093556040519116919082907f8be0079c531659141344cd1fd0a4f28419497f9722a3daafe3b4186f6b6457e090600090a35050565b600054610100900460ff166124325760405162461bcd60e51b81526004016109c59061350e565b61243a6129f5565b6124426129f5565b610e658282612a1c565b600054610100900460ff166124735760405162461bcd60e51b81526004016109c59061350e565b61247b6129f5565b611107612a6a565b33321461248f57600080fd5b60fc8160028111156124a3576124a361316e565b815481106124b3576124b361339b565b906000526020600020015460fd8260028111156124d2576124d261316e565b815481106124e2576124e261339b565b9060005260206000200154106125325760405162461bcd60e51b8152602060048201526015602482015274105b1b081d1bdad95b9cc8185c99481b5a5b9d1959605a1b60448201526064016109c5565b600060fd8260028111156125485761254861316e565b815481106125585761255861339b565b906000526020600020016000815461256f90613424565b9182905550905060fb82600281111561258a5761258a61316e565b8154811061259a5761259a61339b565b9060005260206000200154816125b09190613475565b90506125bc3382612648565b600081815261010360205260409020805483919060ff191660018360028111156125e8576125e861316e565b02179055508160028111156125ff576125ff61316e565b604051829033907f44622077ca534f6e34fe8b39723580be328d0e59b81c0eb6886780aeba88467490600090a45050565b6000611d308284613456565b6000611d30828461356f565b610e65828260405180602001604052806000815250612a9a565b816001600160a01b0316836001600160a01b031614156126c45760405162461bcd60e51b815260206004820152601960248201527f4552433732313a20617070726f766520746f2063616c6c65720000000000000060448201526064016109c5565b6001600160a01b038381166000818152606a6020908152604080832094871680845294825291829020805460ff191686151590811790915591519182527f17307eab39ab6107e8899845ad3d59bd9653f200f220920489ca2b5937696c31910160405180910390a3505050565b606061010480546108cd906132da565b6060816127655750506040805180820190915260018152600360fc1b602082015290565b8160005b811561278f578061277981613424565b91506127889050600a8361356f565b9150612769565b60008167ffffffffffffffff8111156127aa576127aa6131b5565b6040519080825280601f01601f1916602001820160405280156127d4576020820181803683370190505b5090505b8415612206576127e960018361343f565b91506127f6600a86613583565b612801906030613475565b60f81b8183815181106128165761281661339b565b60200101906001600160f81b031916908160001a905350612838600a8661356f565b94506127d8565b60006001600160a01b0384163b1561293257604051630a85bd0160e11b81526001600160a01b0385169063150b7a0290612883903390899088908890600401613597565b6020604051808303816000875af19250505080156128be575060408051601f3d908101601f191682019092526128bb918101906135d4565b60015b612918573d8080156128ec576040519150601f19603f3d011682016040523d82523d6000602084013e6128f1565b606091505b5080516129105760405162461bcd60e51b81526004016109c5906134bc565b805181602001fd5b6001600160e01b031916630a85bd0160e11b149050612206565b506001949350505050565b6001600160a01b0383166129985761299381609980546000838152609a60205260408120829055600182018355919091527f72a152ddfb8e864297c917af52ea6c1c68aead0fee1a62673fcc7e0c94979d000155565b6129bb565b816001600160a01b0316836001600160a01b0316146129bb576129bb8382612acd565b6001600160a01b0382166129d257610afb81612b6a565b826001600160a01b0316826001600160a01b031614610afb57610afb8282612c19565b600054610100900460ff166111075760405162461bcd60e51b81526004016109c59061350e565b600054610100900460ff16612a435760405162461bcd60e51b81526004016109c59061350e565b8151612a56906065906020850190612eb0565b508051610afb906066906020840190612eb0565b600054610100900460ff16612a915760405162461bcd60e51b81526004016109c59061350e565b611107336123b9565b612aa48383612c5d565b612ab1600084848461283f565b610afb5760405162461bcd60e51b81526004016109c5906134bc565b60006001612ada8461104c565b612ae4919061343f565b600083815260986020526040902054909150808214612b37576001600160a01b03841660009081526097602090815260408083208584528252808320548484528184208190558352609890915290208190555b5060009182526098602090815260408084208490556001600160a01b039094168352609781528383209183525290812055565b609954600090612b7c9060019061343f565b6000838152609a602052604081205460998054939450909284908110612ba457612ba461339b565b906000526020600020015490508060998381548110612bc557612bc561339b565b6000918252602080832090910192909255828152609a90915260408082208490558582528120556099805480612bfd57612bfd6135f1565b6001900381819060005260206000200160009055905550505050565b6000612c248361104c565b6001600160a01b039093166000908152609760209081526040808320868452825280832085905593825260989052919091209190915550565b6001600160a01b038216612cb35760405162461bcd60e51b815260206004820181905260248201527f4552433732313a206d696e7420746f20746865207a65726f206164647265737360448201526064016109c5565b6000818152606760205260409020546001600160a01b031615612d185760405162461bcd60e51b815260206004820152601c60248201527f4552433732313a20746f6b656e20616c7265616479206d696e7465640000000060448201526064016109c5565b612d246000838361293d565b6001600160a01b0382166000908152606860205260408120805460019290612d4d908490613475565b909155505060008181526067602052604080822080546001600160a01b0319166001600160a01b03861690811790915590518392907fddf252ad1be2c89b69c2b068fc378daa952ba7f163c4a11628f55a4df523b3ef908290a45050565b828054612db7906132da565b90600052602060002090601f016020900481019282612dd95760008555612e1f565b82601f10612df25782800160ff19823516178555612e1f565b82800160010185558215612e1f579182015b82811115612e1f578235825591602001919060010190612e04565b50612e2b929150612f24565b5090565b828054828255906000526020600020908101928215612e1f579160200282015b82811115612e1f578251829061ffff16905591602001919060010190612e4f565b828054828255906000526020600020908101928215612e1f579160200282015b82811115612e1f578251829060ff16905591602001919060010190612e90565b828054612ebc906132da565b90600052602060002090601f016020900481019282612ede5760008555612e1f565b82601f10612ef757805160ff1916838001178555612e1f565b82800160010185558215612e1f579182015b82811115612e1f578251825591602001919060010190612f09565b5b80821115612e2b5760008155600101612f25565b6001600160e01b0319811681146114e157600080fd5b600060208284031215612f6157600080fd5b8135611d3081612f39565b60005b83811015612f87578181015183820152602001612f6f565b83811115611c565750506000910152565b60008151808452612fb0816020860160208601612f6c565b601f01601f19169290920160200192915050565b602081526000611d306020830184612f98565b600060208284031215612fe957600080fd5b5035919050565b80356001600160a01b038116811461300757600080fd5b919050565b6000806040838503121561301f57600080fd5b61302883612ff0565b946020939093013593505050565b60008060006060848603121561304b57600080fd5b61305484612ff0565b925061306260208501612ff0565b9150604084013590509250925092565b60006020828403121561308457600080fd5b611d3082612ff0565b600080602083850312156130a057600080fd5b823567ffffffffffffffff808211156130b857600080fd5b818501915085601f8301126130cc57600080fd5b8135818111156130db57600080fd5b8660208285010111156130ed57600080fd5b60209290920196919550909350505050565b6000806040838503121561311257600080fd5b61311b83612ff0565b91506020830135801515811461313057600080fd5b809150509250929050565b60008060006060848603121561315057600080fd5b61315984612ff0565b95602085013595506040909401359392505050565b634e487b7160e01b600052602160045260246000fd5b60408101600384106131a657634e487b7160e01b600052602160045260246000fd5b92815290151560209091015290565b634e487b7160e01b600052604160045260246000fd5b600080600080608085870312156131e157600080fd5b6131ea85612ff0565b93506131f860208601612ff0565b925060408501359150606085013567ffffffffffffffff8082111561321c57600080fd5b818701915087601f83011261323057600080fd5b813581811115613242576132426131b5565b604051601f8201601f19908116603f0116810190838211818310171561326a5761326a6131b5565b816040528281528a602084870101111561328357600080fd5b82602086016020830137600060208483010152809550505050505092959194509250565b600080604083850312156132ba57600080fd5b6132c383612ff0565b91506132d160208401612ff0565b90509250929050565b600181811c908216806132ee57607f821691505b6020821081141561330f57634e487b7160e01b600052602260045260246000fd5b50919050565b6020808252818101527f4f776e61626c653a2063616c6c6572206973206e6f7420746865206f776e6572604082015260600190565b60208082526031908201527f4552433732313a207472616e736665722063616c6c6572206973206e6f74206f6040820152701ddb995c881b9bdc88185c1c1c9bdd9959607a1b606082015260800190565b634e487b7160e01b600052603260045260246000fd5b60208082526037908201527f5468697320546f6b656e20697320616c7265616479207374616b65642e20506c60408201527f656173652074727920616e6f7468657220746f6b656e2e000000000000000000606082015260800190565b634e487b7160e01b600052601160045260246000fd5b60006000198214156134385761343861340e565b5060010190565b6000828210156134515761345161340e565b500390565b60008160001904831182151516156134705761347061340e565b500290565b600082198211156134885761348861340e565b500190565b6000835161349f818460208801612f6c565b8351908301906134b3818360208801612f6c565b01949350505050565b60208082526032908201527f4552433732313a207472616e7366657220746f206e6f6e20455243373231526560408201527131b2b4bb32b91034b6b83632b6b2b73a32b960711b606082015260800190565b6020808252602b908201527f496e697469616c697a61626c653a20636f6e7472616374206973206e6f74206960408201526a6e697469616c697a696e6760a81b606082015260800190565b634e487b7160e01b600052601260045260246000fd5b60008261357e5761357e613559565b500490565b60008261359257613592613559565b500690565b6001600160a01b03858116825284166020820152604081018390526080606082018190526000906135ca90830184612f98565b9695505050505050565b6000602082840312156135e657600080fd5b8151611d3081612f39565b634e487b7160e01b600052603160045260246000fdfe68747470733a2f2f617065732d6261636b656e642e6865726f6b756170702e636f6d2f74656d702f6d657461646174612f746f6b656e2fa2646970667358221220ebe0160246e9b8479ecf476bc1e2b66e21145d850ff78a112d3f3e4ee841c74464736f6c634300080a0033",
  "linkReferences": {},
  "deployedLinkReferences": {}
}